:020000040800F2
:10000000001A0020FD000008991A0008911A000843
:10001000951A0008350D0008A11B0008000000001B
:10002000000000000000000000000000A11A00080D
:10003000390D0008000000009D1A0008A51A0008EC
:100040001701000817010008170100081701000830
:100050001701000817010008170100081701000820
:100060001701000817010008170100081701000810
:100070001701000817010008170100081701000800
:100080001701000817010008170100080000000010
:100090000000000000000000000000001701000840
:1000A0000000000000000000000000000000000050
:1000B00017010008170100081701000817010008C0
:1000C00017010008170100081701000817010008B0
:1000D00017010008AD1A0008451B000817010008A9
:1000E0001701000817010008DFF80CD000F0BAFD76
:1000F00000480047392A0008001A002006488047B7
:1001000006480047FEE7FEE7FEE7FEE7FEE7FEE7FC
:10011000FEE7FEE7FEE7FEE7A91A0008E90000088F
:10012000A0F14101192900D82030704740EA0103AD
:100130009B0703D009E008C9121F08C0042AFAD29D
:1001400003E011F8013B00F8013B521EF9D2704761
:10015000D2B201E000F8012B491EFBD27047002209
:10016000F6E710B513460A4604461946FFF7F0FFB6
:10017000204610BD30B505462A460B4612F8010B45
:1001800013F8014B08B1A042F8D01CB1002802D0EE
:100190006D1CF1E7284630BDCAB2401E10F8011FA1
:1001A0008A4202D00029F9D100207047421C10F881
:1001B000011B0029FBD1801A704710B5002200E016
:1001C000521C835C8C5CA34201D1002BF8D1D8B2C5
:1001D000E1B2401A10BD034611F8012B00F8012BC3
:1001E000002AF9D11846704730B50546002003466D
:1001F00000E05B1C934205D2EC5CC85C201A01D184
:10020000002CF6D130BD00002DE9FF4F087883B0F7
:100210009946FF2805D0491C2D2804D00024002031
:1002200008E000200BE00124F9E700EB800003EB7D
:100230004000491C0B78FF2BF7D104B1404200234A
:100240000293147819461D462D2C01D02B2C04D175
:10025000521C2D2C13D000240294AA461478FF2C93
:100260000FD00A25A3FB057801FB05814FF0000C98
:1002700003FB0C11521CE3194AEB0101EEE70124C8
:10028000EAE7814453EA010002D019F5C87F06DA93
:1002900003980021C0E9001107B0BDE8F08F0025E8
:1002A000AE4E2F46DFF8B882184600F083FCCDE949
:1002B0000001B9F1000002DAC9F1000400E00446CF
:1002C0000023A74A1AEB030B42EB045A12E0E007A3
:1002D00007D02A4633463846414600F0ECF9074637
:1002E00088462A4633461046194600F0E4F905468A
:1002F0000E466410002CEAD1DDE90001B9F1000FCF
:100300005A46534606DA00F0E6FB3A46434600F00A
:10031000E2FB05E000F0CFF93A46434600F0CBF9A6
:10032000029A0AB181F00041039AC2E90001B3E7E1
:100330002DE9FF4F1F468DB0D7E901464FF0FF383A
:100340002E2045464FF000090B90B9696D1C0E98A0
:100350008847396A824688470028F6D1BAF1FF3FBC
:100360000AD024F4D064002E11DDBAF12B0F08D08E
:10037000BAF12D0F0BD102E0404611B08DE744F4E5
:100380008064B9696D1C0E9888478246761E69465E
:10039000600501D52D2000E02B208DF8000001F133
:1003A000010B0DF1200809E0B9696D1C0E98884712
:1003B00082460F9844F40074761E0560002E02DD1C
:1003C000BAF1300FF0D00B998A453ED144F0800449
:1003D00006E00F99681CA9F1010944F40074086053
:1003E000B9696D1C761E0E98884782463028F0D079
:1003F0002BE00B998A4505D1200603D444F08004F4
:10040000761E18E0504603F049FD08B30DF11302C3
:10041000761EAAF1300044F40074934506D20BF81E
:10042000010B200607D5A9F1010003E0200602D444
:1004300009F101008146A00502D50F99681C0860EA
:10044000B9696D1C0E9888478246002ED1DC53E0B6
:10045000002E51DDBAF1650F02D0BAF1450F4BD134
:10046000A00549D5B9696D1C24F44074761E0E9818
:1004700088478246002E0CDD2B2804D0BAF12D0FC0
:1004800007D144F48074B9696D1C0E988847824680
:10049000761EE00501D52D2100E02B2108F8011B77
:1004A000CDF82C8021E00DF12901761E44F4007472
:1004B00088450CD2AAF1300010F0FF0088F8000047
:1004C00002D10B99884509D908F1010806E0E00539
:1004D00001D5244801E042F20F708146B9696D1CD4
:1004E0000E98884782460F980560002E04DD50461E
:1004F00003F0D4FC0028D6D1F9690E988847FF2074
:100500008BF8000088F800000020069007904B460A
:100510006A4608A906A8FFF777FEA00502D46FF087
:1005200001002AE714F0240F0AD0E00714D1DDE916
:1005300006123868031D3B600068C0E900120BE03A
:10054000DDE9060100F072FB0146E00704D13868DE
:10055000021D3A600068016028460EE70000144062
:100560000000F03FF1D8FFFF2DE9FE4F804681EA01
:100570000300C00F0C46009021F0004123F000451D
:10058000B8EB0200A94105D24046214690461C46E0
:100590000B46024623F00040104347D0270DC7F317
:1005A0000A00C3F30A510290401A019040286BDA06
:1005B000C3F3130040F4801B0098924620B100233F
:1005C000D2EB030A63EB0B0B01985946C0F14002D2
:1005D000504600F07EF906460D4650465946019AAF
:1005E00000F096F910EB08006141002487EA1152EF
:1005F00084EAE7731A4340D0009A62B3019A012A51
:100600004FEA075215DC001B61EB02014FF000427C
:1006100002EA0752CDE90042001C41F58011324642
:100620002B4600F00AFA03B0BDE8F08F40462146A1
:10063000F9E7001B61EB0201001C41F58013001873
:100640005B412018A2F5001747EB030140EAD57083
:10065000B6196D4111E06D084FEA360645EAC075DE
:100660004FEA0752001B61EB0201001C41F58011AB
:1006700049084FEA30000019514132462B4603B079
:10068000BDE8F04F00F0CAB90098012240000023F5
:10069000D0EB020263EBE073009821464FEAE0746E
:1006A000B8EB000061EB0401E9E783F000435BE78E
:1006B00081F0004158E72DE9FE4F81EA030404F080
:1006C000004421F0004100944FF0000B23F0004360
:1006D00050EA01045ED052EA03045BD0C3F30A542B
:1006E000C1F30A552C44A4F2F3340194A0FB025444
:1006F000C1F3130141F48011C3F3130343F48013D6
:1007000001FB024400FB034E840A970A44EA815429
:1007100047EA8357A4FB076802958D0A05FB078506
:100720004FEA932C04FB0C542705029D4FEA065810
:1007300047EA1637B5EB08056EEB070C870E920EED
:1007400047EA811742EA8312A7FB0201B6EB0B01CD
:1007500064EB00042B0D43EA0C335E1844EB1C5091
:10076000DA465146E7FB0201C5F313044FEA0B33A7
:1007700043EA14534FEA0432019C43EA0603A4F10E
:100780000C040294009CCDE900B400F056F903B0CB
:10079000BDE8F08F00200146F9E730B5041E71F185
:1007A000000404DB4FF00044404264EB0101141EDE
:1007B00073F1000405DB1C464FF00043524263EB2B
:1007C0000403801A994101D3012030BD002030BDBF
:1007D00030B5041E71F1000404DB4FF000444042C8
:1007E00064EB0101141E73F1000405DB1C464FF09D
:1007F0000043524263EB0403101A8B4101D30120E2
:1008000030BD002030BD70B5C1F30A5201F0004583
:100810000024C1F3130140F2FF3341F480119A42E6
:1008200001DA002070BD40F233439A42A2F2334213
:1008300003DC524200F05CF800E090402C43F1D021
:10084000404270BD30B50B460146002020220124F5
:1008500009E021FA02F59D4205D303FA02F5491B8E
:1008600004FA02F52844151EA2F10102F1DC30BDA4
:100870002DE9F05F0546002092469B4688460646D5
:10088000814640241BE0284641464746224600F068
:100890002FF853465A46C01A914110D311461846B4
:1008A000224600F016F82D1A67EB01084F46224643
:1008B0000120002100F00DF817EB00094E41201E29
:1008C000A4F10104DFDC484631462A464346BDE830
:1008D000F09F202A04DB203A00FA02F10020704742
:1008E0009140C2F1200320FA03F31943904070476E
:1008F000202A04DB203A21FA02F00021704721FA75
:1009000002F3D040C2F120029140084319467047DB
:10091000202A06DBCB17203A41FA02F043EAE073C3
:1009200006E041FA02F3D040C2F1200291400843B0
:1009300019467047426842B1016811F8013B23B182
:10094000521EC0E90012184670470121C160881E7E
:10095000704742685AB1C368016843B983688B42E3
:1009600005D0491E521CC0E90012002070474FF00C
:10097000FF3070470FB40B0010B58AB00FA900917B
:100980000E994FF00004234ACC60214CCDE9064279
:1009900000D004236FF00042CDE901321E4A0892D4
:1009A00002466B460020FFF7C3FC0AB010BC5DF89E
:1009B00014FBF0B585B007464FF0FF300091CDE94C
:1009C00001011E46002015460C4604903B466A462F
:1009D000314604A8FFF7CEFF04990346601825B1FD
:1009E00009B1024600E022462A6000290ED0002B01
:1009F00002DD0099814209D00094001BCDE9010479
:100A00003B466A46314604A8FFF7B4FF05B0F0BD87
:100A10003509000853090008950C000810B5141E8C
:100A200073F1000408DA401C41F1000192185B41A7
:100A30001A4301D120F0010010BD2DE9F04D92467E
:100A40009B4611B1B1FA81F202E0B0FA80F2203295
:100A50009046FFF73EFF04460F4640EA0A0041EA8F
:100A60000B0153465A46084313D0114653EA01007E
:100A700019D0C8F140025046FFF73AFF05460E462E
:100A8000504659464246FFF724FF084305D001204F
:100A900004E020463946BDE8F08D0020054346EAD3
:100AA000E0762C4337430A986305E40AA0EB08007C
:100AB0000022FD0A44EA47540A3002D500200146CC
:100AC000E9E7010510196941DDE9084500196941A7
:100AD000BDE8F04DA2E72DE9F04D81EA030404F0F2
:100AE000004B21F0004514464FF0000A23F000416E
:100AF00050EA050220D054EA01021DD0C5F30A577E
:100B00000246C5F31303C1F31300C1F30A5640F4C0
:100B1000801543F48013A7EB0608101BD64608F295
:100B2000FD3873EB050002D308F1010801E09218CB
:100B30005B41B8F1000F03DA00200146BDE8F08DFB
:100B400000204FF48011064684460EE0171B73EB1D
:100B5000050705D3121B63EB050306434CEA010CA2
:100B600049084FEA300092185B4150EA0107EDD185
:100B700052EA030012D082EA040083EA0501084326
:100B800005D0101BAB4106D20122002306E0002253
:100B90004FF0004302E06FF0010253101AEB060021
:100BA0004CEB085110EB0A0041EB0B01BDE8F04D96
:100BB000FFF734BF0EB540F2334202920022CDE976
:100BC00000221346FFF739FF03B000BDC1F30A52FC
:100BD000C1F3130140F2FF3341F480119A4202DA6B
:100BE00000200146704740F233439A42A2F233425A
:100BF00002DC5242FFF77CBEFFF76BBE30B5041E2D
:100C000071F1000404DB4FF00044404264EB010149
:100C1000141E73F1000405DB1C464FF000435242E2
:100C200063EB0403994208BF904230BD01F00043DA
:100C300030B421F0004150EA010206D00A0DA2F5BD
:100C40006072C1F31301002A02DC30BC002070473F
:100C5000440F44EAC104C100E01830BC00EBC250AC
:100C600000F01DB81CB509480090094801900546E0
:100C7000009C06E0E06840F0010394E80700984714
:100C80001034AC42F6D3FFF733FA0000DC61000801
:100C9000FC610008C0B24FF4F05100F037B80029F1
:100CA000A8BF7047401C490008BF20F001007047F2
:100CB00010B4B0FA80FC00FA0CF050EA010404BF52
:100CC00010BC704749B1CCF1200421FA04F411FAA8
:100CD0000CF118BF012121430843A3EB0C01CB1DEC
:100CE0004FEA00614FEA102042BF002010BC70475D
:100CF00000EBC35010440029A4BF10BC7047401C37
:100D0000490008BF20F0010010BC70477F2801D9BE
:100D1000002208E0064A02EB5002C007127800D118
:100D2000120902F00F0201209040084070470000B5
:100D300006470008FEE70000704700002DE9F04F6D
:100D400082B00E68002E00F0F78041F20042C4F23B
:100D50000102042340F2004E904208BF03234FF6E5
:100D6000FF7CC4F2010E009300240123C1F2100C99
:100D70004FF0000A4FF000094AE041F20002C4F2CD
:100D80000102009F904208BF022704F00C030F22CB
:100D90009A402BEA020207FA03F34FEA9A051A4334
:100DA00046F825204E6840F20C45F202DEF8082095
:100DB00054BF22EA080242EA0802C4F20105CEF852
:100DC00008202A68B30254BF22EA080242EA080255
:100DD0002A60B303DEF8042054BF22EA080242EA84
:100DE0000802F303CEF80420DEF800204FF00103E0
:100DF00054BF22EA080242EA0802CEF800200E6838
:100E00000AF1010A36FA0AF204F1040400F09480AF
:100E100003FA0AFB16EA0B08F1D04E68664511DCAE
:100E2000122E51D8DFE806F0340A4946505050508F
:100E3000505050505050505050424D00D1F80C90EE
:100E400042E000BF4FF6FF72C1F2210296420FDC72
:100E50000022C1F2110296421AD00022C1F21202FF
:100E6000964215D00022C1F22102964210D02BE00A
:100E70000022C1F2220296420AD00022C1F23102BF
:100E8000964205D00022C1F2320296421CD100BF28
:100E90008A6842B1012A14BFC0F814B0C0F810B07B
:100EA0004FF0080910E04FF004090DE0CA6802F1A4
:100EB000040909E04FF0000906E0CA6802F10809D8
:100EC00002E0CA6802F10C0902462646B8F5807FA6
:100ED00024BF0432203E17680F25B54027EA0505D8
:100EE00009FA06F635431560CA79D2067FF587AF51
:100EF00041F21803C4F202031A68AEF57E7642F09E
:100F000001021A601A6802F001020192019A2AF0A5
:100F1000030256F802B040F60002C4F20102904209
:100F200008D040F60042C4F2010290427FF425AF9F
:100F300001272AE7002728E702B0BDE8F08F00006C
:100F40008068084018BF012070470000002A08BFD1
:100F5000090401617047000040F24850C2F20000ED
:100F60000068704740F21C0040F24851C2F2000095
:100F7000C2F2000100780A6810440860704700005F
:100F800080B542F20000C4F20200016841F0100195
:100F90000160032000F070F80F2000F005F800F069
:100FA0002BF8002080BD0000B0B540F21C02C2F258
:100FB000000240F20C011278C2F200014FF47A7381
:100FC0000968B3FBF2F20446B1FBF2F1084600F007
:100FD00001FB0F2C4FF001050CD858B94FF0FF3032
:100FE00021460022002500F01BF840F22000C2F24A
:100FF000000004602846B0BD70470000002848BFCC
:10100000704700F01F01012202FA01F11C2202EADE
:10101000D0004EF20012CEF2000281507047000064
:1010200010B54EF60C5CCEF2000CDCF80030C3F3C9
:10103000022E8EF00704042C28BF0424BEF1030303
:101040004FF0FF3E0EFA04F438BF0023A14399404D
:101050000EFA03F39A43114300F1604200F00F03CC
:10106000090102F56442043B6344002848BF03F1D0
:101070000C02117010BD00004EF60C51CEF20001B2
:101080000A684FF6FF031A4060F30A2242F08060BC
:1010900040F0FD7008607047002804BF01207047D1
:1010A0002DE9F04381B042F20008C4F20208044680
:1010B000D8F800000D4600F0070088420CD2D8F89E
:1010C000000020F007002843C8F80000D8F800000E
:1010D00000F00700A8426BD1206841F204098107A3
:1010E000C4F2020917D5410705D5D9F8001041F41B
:1010F000E061C9F80010010705D5D9F8001041F4E6
:101100006051C9F80010D9F80010A26821F0F00170
:101110001143C9F80010C00741D1D8F8000000F011
:101120000700A8420CD9D8F8000020F00700284397
:10113000C8F80000D8F8000000F00700A84237D136
:101140002068410707D5D9F80010E26821F4E06172
:101150001143C9F80010000708D5D9F8000021692B
:1011600020F4605040EAC100C9F80000D9F800201E
:1011700002F00C00082841F20020C0F27A0049D1A8
:1011800045F64073C2F38341C0F60003595CD203B5
:1011900034D440F60010C0F23D0048433AE06068A5
:1011A00059F8041C022807D0012824D1890305D44A
:1011B000012001B0BDE8F0838901F9D5D9F800100C
:1011C00021F003010843C9F80000FFF7C5FE0646F9
:1011D00041F28837D9F80000616800F00C00B0EBEC
:1011E000810F9AD0FFF7B8FE801BB842F2D90320D6
:1011F00001B0BDE8F0838907DAD5DFE7D9F8002030
:1012000044F25E73C2F34042C0F600039A5C484366
:10121000B0FBF2F0D9F8001044F24672C1F30311AA
:10122000C0F60002515C40F20C0220FA01F140F2DB
:101230002000C2F200000068C2F200021160FFF755
:10124000B3FE002001B0BDE8F083000040F20C00C6
:1012500041F20401C2F20000C4F202010068096810
:1012600044F25672C1F30221C0F60002515CC8403C
:101270007047000040F20C0041F20401C2F200008D
:10128000C4F202010068096844F25672C1F3C22137
:10129000C0F60002515CC84070470000002804BF3F
:1012A000012070472DE9F04182B00446007841F2F8
:1012B0000006C007C4F2020647D0706800F00C00B8
:1012C000042808D1306880033FD56068E8BB01205E
:1012D00002B0BDE8F081706800F00C00082802D16F
:1012E0007068C003EED4656830682DB1B5F5A02FE5
:1012F00009D0B5F5803F0AD020F4803030603068E6
:1013000020F4802005E040F480203060306840F414
:1013100080303060FFF720FE002D054612D000BF60
:101320003068800311D4FFF717FE401B6428F7D9FB
:1013300016E100BFFFF710FE401B64284FF00300CA
:1013400000F2D88030688003F4D42078800719D563
:10135000706810F00C0F07D0706800F00C000828BF
:1013600027D17068C00324D43068800703D5206972
:10137000012840F0A6803068616920F0F80040EA5A
:10138000C1003060207800074ED5A06938B3002036
:10139000C4F242200121C0F88014FFF7DDFD0546AC
:1013A000706A80072DD4FFF7D7FD401B0228F7D9BC
:1013B000D6E02069002840F20000C4F2422000F08C
:1013C000A88001210160FFF7C7FD0546306880074E
:1013D000D1D4FFF7C1FD401B0228F7D9C0E000209F
:1013E000C4F242200021C0F88014FFF7B5FD054685
:1013F000706A800718D5FFF7AFFD401B0228F7D9A8
:10140000AEE040F20C00C2F20000006844F6D35196
:10141000C1F26201A0FB0101480A019000BF0198DE
:10142000411E00280191F9D12078400717D4E569C1
:101430008DB1706800F00C00082846D1012D40D015
:101440007068216A00F480328A423AD1616A00F4FD
:101450007010884235D1002002B0BDE8F081F069FB
:101460005FEAC00808D4F06940F08050F061F0698C
:1014700000F080500090009847F20007C4F2000787
:101480003868C0050FD4386840F480703860FFF7C2
:1014900063FD05463868C00505D4FFF75DFD401BB8
:1014A0006428F7D95CE0E568306A1DB1052D41D0AC
:1014B000012D43D020F001003062306A20F004009A
:1014C0003EE0012002B0BDE8F0810027C4F24227CF
:1014D00000203866FFF740FD022D05460ED100BF03
:1014E0003068800153D5FFF737FD401B02284FF0CD
:1014F0000300F5D902B0BDE8F08100BF306880017B
:10150000A9D5FFF729FD401B02284FF00300F5D9AC
:10151000F0E700210160FFF71FFD054630688007F6
:101520007FF530AFFFF718FD401B02284FF0030096
:10153000F4D9DFE740F004003062306A40F0010087
:101540003062FFF709FD002D054641F2883712D0C1
:10155000306A800712D4FFF7FFFC401BB842F7D96E
:10156000032002B0BDE8F081FFF7F6FC401BB84253
:101570004FF00300BED8306A8007F5D4B8F1000FF1
:101580003FF555AFF06920F08050F0614FE7206AD9
:10159000B0F5803F05D17168A26821F40031114394
:1015A00071607168626A21F47411114308437060BC
:1015B00001203866FFF7D0FC044600BF3068800188
:1015C0003FF549AFFFF7C8FC001B02284FF00300AE
:1015D000F4D98FE7411E0020B0EB116F1CBF012032
:1015E00070474EF21002CEF2000251604EF62351C7
:1015F000CEF20001F0230B7007219060116070475C
:10160000002804BF0120704710B5044690F841003F
:1016100028B9002084F84000204600F061F824201A
:1016200084F841002068D4E90212C36823F400530F
:10163000C360036923F440531A430261D4E90423CD
:101640001143C268194341F20C639A431143C160CC
:101650004169A26921F44071114343F60002C4F2CA
:1016600001029042416102D0FFF7F0FD01E0FFF777
:1016700001FED4E90023192148439900B0FBF1F0A1
:1016800048F21F5CC5F2EB1CA0FB0C314FF69C73BB
:101690004909C0F6FF7301FB0300322303EB00107E
:1016A000A0FB0C03F02000EA531000EB0110C3F381
:1016B0004311084490601069202120F4904010618B
:1016C000506920F02A005061D06840F40050D0608A
:1016D0000020606484F8411084F84210606310BDFB
:1016E00070B584B00446006844F20041C4F20001C1
:1016F000884246D043F60001C4F2010188427DD100
:1017000041F21800C4F20200016840F6000541F001
:10171000040101600168C4F2010501F004010091B7
:10172000009901686E4641F48041016000683146CD
:1017300000F48040009000984FF400700090022068
:10174000019001200290032003902846FFF7F6FA4B
:101750004FF4806000900020019028463146FFF74A
:10176000EDFA2520FFF74AFC252003210322FFF78D
:1017700057FC206850F80C1F41F020010160102137
:1017800039E041F21800C4F20200016840F6000599
:1017900041F0040101600168C4F2010501F0040197
:1017A0000091009941686E4641F400314160406803
:1017B000314600F400300090009804200090022090
:1017C000019001200290032003902846FFF7B6FA0B
:1017D000082000900020019028463146FFF7AEFA1D
:1017E0002620FFF70BFC262003210322FFF718FC1D
:1017F000206820210C3002681143016004B070BDE4
:101800002DE9F04381B0044690F84200202809D128
:101810000F4600294FF0010018BF002A06D101B081
:10182000BDE8F083022001B0BDE8F0830020222152
:101830009946606484F8421020631546FFF78CFBDC
:10184000A585E585A1688046B1F5805F02D1206954
:10185000002866D03E460027E08D00285AD009F1C6
:1018600001050CE02068002640686FF35F2027F830
:10187000020BE08D0138E085E08D00284AD0206819
:101880000068800612D475B1B9F1000F05D121E0CE
:10189000016889060AD4002DFAD0FFF75DFBA0EBA2
:1018A0000800484516D82068F2E700BF002ED9D0BE
:1018B000A068B0F5805F07D008B9206920B1206822
:1018C000406800F07F0001E02068406806F8010BE6
:1018D000CFE700BF206850E8030F216820F4D070E4
:1018E00041E80302002AF5D1206850E8050F21687D
:1018F00020F0010041E80502002AF5D1202084F8FB
:10190000410084F84200002084F84000032001B028
:10191000BDE8F083202084F84200002001B0BDE83B
:10192000F083002698E700002DE9F04381B00446DB
:1019300090F84100202809D10E4600294FF00100FF
:1019400018BF002A06D101B0BDE8F083022001B023
:10195000BDE8F083002060642120994684F84100AE
:101960001546FFF7F9FAA584E584A1688046B1F52C
:10197000805F02D12069002852D037460026E08CD3
:10198000002842D009F101050AE000BF97B117F81D
:10199000010B21684860E08C0138E084E08CA0B342
:1019A000206800680006F1D4BDB1B9F1000F0ED176
:1019B00016E000BF36F8020B21686FF35F20486025
:1019C0000027E8E701680906E0D4002DFAD0FFF708
:1019D000C3FAA0EB0800484502D82068F2E700BF30
:1019E000206850E8030F216820F4D07041E803021A
:1019F000002AF5D1206850E8050F216820F0010089
:101A000041E80502002AF5D10CE020680068400694
:101A100037D4B9F1000F1FD019F101050ED014E031
:101A20000027ACE7202084F8410084F84200002021
:101A300084F84000032001B0BDE8F083206800BFB7
:101A4000016849061DD4002DFAD0FFF785FAA0EBF6
:101A500008004845F2D900BF206850E8030F21680C
:101A600020F4D07041E80302002AF5D1206850E844
:101A7000050F216820F0010041E80502002AF5D198
:101A8000D0E7202084F84100002001B0BDE8F083B9
:101A9000FEE70000FEE7000070470000704700000E
:101AA00070470000FFF75EBA7047000070B582B063
:101AB00040F27C45C2F20005002029688DF807003D
:101AC000086840F244568006C2F2000619D53088F4
:101AD0000DF10701802824BF0020308040F27C40B7
:101AE000C2F2000001224FF47A73FFF789FE3088BA
:101AF0009DF80710421C328040F2C442C2F200023C
:101B0000115428680068C00614D540F2C444C2F2DB
:101B1000000409A0214602F05BF820468021FEF770
:101B20001EFB00203080009028680168009140680A
:101B30000090009802B070BD726563763A202573FC
:101B40000D0A000010B582B040F22C01C2F2000173
:101B5000002009688DF80700086880061ED540F24D
:101B60002804C2F2000420880DF10701B0F5806F4F
:101B700024BF0020208040F22C00C2F2000001228D
:101B80004FF47A73FFF73CFE20889DF80710421C43
:101B9000228040F27402C2F20002115402B010BD61
:101BA000FEE70000B0B10368A3B1D0E901C262450D
:101BB00028BF70478268624508D200BF995C20291F
:101BC00004D8013294458260F8D16246624504BF70
:101BD000511E816070470000002808BF7047F0B5B3
:101BE00081B040F210060446C2F20006002703E06E
:101BF000716828468847DCB1607B25462468C007A9
:101C000004D1A868002818BFFFF7E6FF687BC0076B
:101C100004D1286910B1716888472F61687B8007FB
:101C2000E6D4286A0028E3D0716888472F62DFE78E
:101C300001B0BDE8F0407047024600284FF00000B8
:101C40000ED0002948BF704702F10800002200BFF3
:101C50000068013942F10003002818BF002BF7D1BA
:101C600070470000002200F083BC000000280FBF76
:101C70000020007B2038B0FA80F018BF4009704780
:101C8000002804BF0020704710B50446FEF78EFA06
:101C9000411C204600220023BDE81040AFF3008025
:101CA0002DE9F04F87B0054640F2744940F2784A7A
:101CB00014460020C2F20009C2F2000A002D06906C
:101CC000CDE90400CDE90200CDE90000C9F800002B
:101CD000CAF8000018BF00291CD1002818BFFFF760
:101CE0007BFF002D4FF0000000F08080DDE9011245
:101CF0004B1E28BF18468A4238BF1046002C1CBF16
:101D000029182160C9F80050CAF80000002007B067
:101D1000BDE8F08F029040F21000C2F20000CDE961
:101D20000051D0E900128068984606902820CDE93D
:101D30000412884758B328218346FEF710FA00980A
:101D4000002178B1029A002A5A460CD1019905293E
:101D50001FD329A103220327FEF746FA694600286C
:101D600008BF02975A46B9B10F68AFB1D1E9013047
:101D7000984212D23E5C202E04D801308342886003
:101D8000F8D11846984204BF0138886005E0002069
:101D9000A3E769460029E7D10021104601F0E2FCE3
:101DA00038B3B8F1000F58461BD0009981B1DDE976
:101DB00001329A420CD200BF8F5C202F04D801322E
:101DC00093420292F8D11A469A4204BF013A029213
:101DD000DDE901329A42BFF480AF895C00297FF4CB
:101DE0007CAF1CB10099029A1144216007B0BDE894
:101DF000F08F584671E700BFEFBBBF00002808BF57
:101E000070474EF2100141F6401CCEF20001C0F2C4
:101E1000010C0023C1F804C08B600A6842F0040280
:101E20000A600A6842F001020A6000BF0A6802F014
:101E30000112012AFAD00A68013822F001020A6070
:101E4000E8D170472DE9F043A1B001AD0B46024641
:101E500022A1284601F0E6FE40F27408C2F2000812
:101E600040464FF48061FEF77AF940F22807C2F24B
:101E70000007002038802846FEF798F982B240F229
:101E80002C00C2F2000029466423FFF74DFD4FF6F7
:101E9000300440F22A05CFF6FF74C2F200050FF2BB
:101EA0005809002606E000BF28800A20FFF7A6FF99
:101EB00001340DD238880028F7D029888842F3D120
:101EC000404649463E80FEF755F90028EDD000E037
:101ED0000126304621B0BDE8F08300BF41542B43BA
:101EE000495053544152543D22544350222C2225F0
:101EF00073222C25730D0A00434F4E4E4543540068
:101F00002DE9F043A1B001AD024623A1284601F01E
:101F100089FE40F27408C2F2000840464FF4806126
:101F2000FEF71DF940F22807C2F2000700203880B2
:101F30002846FEF73BF982B240F22C00C2F20000C4
:101F400029466423FFF7F0FC4FF6300440F22A05DF
:101F500046F24709CFF6FF74C2F20005C0F6000949
:101F6000002605E028800A20FFF748FF01340DD243
:101F700038880028F7D029888842F3D1404649465E
:101F80003E80FEF7F7F80028EDD000E0012630464D
:101F900021B0BDE8F08300BF41542B4349504D555B
:101FA000583D25640D0A000010B540F22A04C2F223
:101FB0000004228840F27401C2F20001FEF7B6F874
:101FC000208810BD2DE9F04740F27408C2F20008E5
:101FD0004FF6300440464FF48061CFF6FF74FEF7B1
:101FE000BEF840F22807C2F200070020388040F215
:101FF0002C00C2F200002DA10E226423FFF794FCF6
:1020000040F22A0A46F24709C2F2000AC0F6000965
:102010002646002507E000BFAAF800000A20FFF7C7
:10202000EDFE01360ED238880028F7D0BAF800103D
:102030008842F1D1404649463D80FEF79BF8002892
:10204000ECD000E0012540F27408C2F200084046DE
:102050004FF48061FEF783F80020388040F22C00B6
:10206000C2F2000015A10C226423FFF75DFC0026DC
:1020700007E000BFAAF800000A20FFF7BFFE013406
:102080000ED238880028F7D0BAF800108842F1D173
:1020900040463E213E80FEF77FF80028ECD000E06D
:1020A000FF26A81B18BF0120BDE8F08741542B4331
:1020B00049504D4F44453D310D0A000041542B43DA
:1020C000495053454E440D0A000000002DE9F043ED
:1020D000B3B046F2301101AD0024C0F6000128462D
:1020E000A9223294CDF8C540CDF8C140CDF8BD400D
:1020F000CDF8B940CDF8B540CDF8B140CDF8AD4000
:10210000FEF714F840F27408C2F2000840464FF49B
:102110008061FEF724F840F22807C2F20007284643
:102120003C80FEF743F882B240F22C00C2F200007D
:1021300029466423FFF7F8FB4FF6300440F22A05E6
:10214000CFF6FF74C2F200050FF23809002605E051
:1021500028800A20FFF752FE01340DD2388800286B
:10216000F7D029888842F3D1404649463E80FEF7A1
:1021700001F80028EDD000E00126304633B0BDE87C
:10218000F08300BF6C6174697475646500000000C1
:102190002DE9F04F81B006464FF630079FA0CFF6ED
:1021A000FF7702F059FA40F22C0544F20040C2F2E7
:1021B0000005C4F2000000240C21C5E900062846F1
:1021C000C5E90244C5E90441AC61FFF719FA40F2E0
:1021D0007409C2F2000948464FF48061FDF7BFFF61
:1021E00040F22806C2F2000691A128460C22642380
:1021F0003480FFF799FB40F22A05C2F200050FF286
:10220000402A05E028800A20FFF7F8FD01370CD2AC
:1022100030880028F7D029888842F3D148465146B3
:102220003480FDF7A7FF0028EDD040F2740440F29F
:102230002C0945F6717A46F2470BC2F200040027DA
:10224000C2F20009C0F6000AC0F6000B04E000BFAD
:102250004FF4FA70FFF7D2FD20464FF48061FDF78E
:102260007EFF48465146042264233780FFF75CFB1B
:102270004FF63008CFF6FF7807E000BF28800A202D
:10228000FFF7BCFD18F10108E2D230880028F6D033
:1022900029888842F2D1204659463780FDF76AFFE7
:1022A0000028ECD068A002F0D7F940F2740840F2A0
:1022B0002C0945F6637A46F2470BC2F20008002764
:1022C000C2F20009C0F6000AC0F6000B04E000BF2D
:1022D0004FF4FA70FFF792FD40464FF48061FDF72E
:1022E0003EFF484651460D2264233780FFF71CFB12
:1022F0004FF63004CFF6FF7406E000BF28800A20B6
:10230000FFF77CFD0134E3D230880028F7D029881C
:102310008842F3D1404659463780FDF72BFF00280D
:10232000EDD051A002F098F90020FFF7E9FD20B1AF
:102330004FF4FA70FFF762FDF6E752A002F08CF955
:1023400046F2430046F23401C0F60000C0F6000138
:1023500000F0AAF890B146F2430446F23405C0F604
:102360000004C0F6000500BF40F2DC50FFF746FD58
:102370002046294600F098F80028F5D145F6DC7093
:10238000C0F6000002F068F946F24A0046F2310158
:10239000C0F60000C0F60001FFF754FD90B146F210
:1023A0004A0446F23105C0F60004C0F6000500BF3D
:1023B0004FF4FA70FFF722FD20462946FFF742FD51
:1023C0000028F5D145F6767046F24A0146F2310210
:1023D000C0F60000C0F60001C0F6000201F0F8FBF4
:1023E000FFF7F0FD20B14FF4FA70FFF707FDF7E7B4
:1023F00046F20800C0F6000002F02EF945F6F07033
:10240000C0F6000002F028F945F6C670C0F60000DC
:1024100001B0BDE8F04F02F01FB900BF496E69740A
:1024200069616C697A6520737461727473200D0040
:1024300041542B524553544F52450D0A00000000A1
:102440007265616479000000312E204553503832A6
:102450003636206D6F64756C652069732072656116
:102460006479200D00000000322E204D6F6465203D
:1024700069732073657420746F2053544154494F1D
:102480004E200D00332E20436F6E6E656374696FAE
:102490006E2069732073657420746F2073696E6792
:1024A0006C65204950200D002DE9F043A1B001AD2D
:1024B0000B46024623A1284601F0B4FB40F2740803
:1024C000C2F2000840464FF48061FDF748FE40F23A
:1024D0002807C2F20007002038802846FDF766FE74
:1024E00082B240F22C00C2F2000029466423FFF7BA
:1024F0001BFA4FF6300440F22A0546F24709CFF6A0
:10250000FF74C2F20005C0F60009002606E000BF15
:1025100028800A20FFF772FC01340DD23888002889
:10252000F7D029888842F3D1404649463E80FDF7DE
:1025300021FE0028EDD000E00126304621B0BDE8A4
:10254000F08300BF41542B43574A41503D2225732D
:10255000222C222573220D0A0000000043F6000100
:10256000C4F201010A685206FCD5C2B24A60704743
:102570002DE9F0478946014600284FF0000018BFBA
:10258000B9F1000F01D1BDE8F087D1F808A08AB1F8
:10259000BAF1000F46D0DAF82010002944D048469E
:1025A000FDF70BFE00283FD0DAF800A0BAF1000FCB
:1025B000F1D137E0BAF1000F34D009F1010806E09B
:1025C000012088B3DAF800A0BAF1000F2AD0DAF8B7
:1025D0002040002CF4D04C4520D099F800502846DB
:1025E000FDF79EFD217806460846FDF799FD8642D7
:1025F00010D10134474600BF85B117F8015B28466A
:10260000FDF78EFD14F8011B06460846FDF788FD10
:102610008642F1D0301A0028D4D105E000200028ED
:10262000D0D101E04FF0000ABAF1000F06D0DAF87D
:102630002000002818BF5046BDE8F0870020BDE804
:10264000F08700002DE9F04F87B0FFF73FFD40F223
:10265000FC54C2F200042046FFF7A6FC2046FFF718
:102660000FFBE0B382A10746FFF7FCFA002800F059
:10267000888081A10646FFF7F5FA00287CD08246C3
:10268000FFF7F4FA002877D07DA13046FFF7EAFA89
:1026900000287BD00446FFF7E9FA002876D07DA118
:1026A0003046FFF7DFFA002875D00546FFF7DEFA5F
:1026B000002870D07CA13046FFF7D4FA00286FD0F4
:1026C0000646FFF7D3FA00286AD0CDE9037640F238
:1026D0004C560027C2F20006CDE905540DE046F243
:1026E0006100C0F6000001F0B7FF5FE00137DDE9EF
:1026F0000554042F06F12C065CD050463946FFF7EE
:102700009BFA834620463946FFF796FA81462846CB
:102710003946FFF791FA804604983946FFF78CFA5C
:10272000BBF1000F18BFB9F1000FDFD0B8F1000FF7
:10273000DCD004460028D9D0DBF810103046FDF775
:102740004AFDD9E9063546F20319C0F6000906F13B
:1027500014000A214A46CDE9003501F049FAD8E9CA
:10276000063506F11E000A214A46CDE9003501F082
:102770003FFA6069B062B9E746F29300C0F6000024
:102780000FE046F27500C0F600000AE046F2D900FC
:10279000C0F6000005E046F2AF00C0F6000000E021
:1027A00052A001F059FF3846FFF716FA002007B093
:1027B000BDE8F08F40A001F00BFA46F25D0540F253
:1027C0004C570026C0F60005C2F20007B91928468A
:1027D00001F0FEF92C36B02EF8D146F22F00C0F6EB
:1027E000000001F039FF36A001F0F2F946F25D0574
:1027F0001426C0F6000500BFB919284601F0E8F913
:102800002C36C42EF8D146F22F00C0F6000001F09D
:1028100023FF2EA001F0DCF946F25D051E26C0F66E
:10282000000500BFB919284601F0D2F92C36CE2E8A
:10283000F8D146F22F00C0F6000001F00DFF26A0EF
:1028400001F0C6F93E1F042727A500BF56F82C1F2C
:10285000284601F0BDF9013FF8D10A2001F0F6FE4B
:102860000398FFF7B9F9012007B0BDE8F08F00BF6A
:102870006461696C7900000074696D650000000096
:1028800074656D70657261747572655F326D5F6DD0
:102890006178000074656D70657261747572655F52
:1028A000326D5F6D696E0000776561746865725F97
:1028B000636F64650000000074696D653A20000074
:1028C0004D617854656D703A200000004D696E547A
:1028D000656D703A20000000776561746865725F0D
:1028E000636F64653A200000256420004572726FB2
:1028F000722067657474696E6720277765617468F4
:1029000065725F636F6465272061727261792E0062
:1029100080B584B041F21800C4F20200016841F0B1
:10292000040101600068002100F00400009000989C
:102930000320019101210090CDE9021040F6000032
:10294000C4F201006946FEF7F9F904B080BD000049
:10295000B0B540F60004C4F2010420460121FEF7A0
:10296000EFFA38B90A20FFF749FA20460121FEF7AD
:10297000E7FA70B120460221FEF7E2FA38B90A20E0
:10298000FFF73CFA20460221FEF7DAFA48B10020B0
:10299000B0BD012520460121FEF7D2FA0028F9D06A
:1029A00006E0022520460221FEF7CAFA0028F9D0E7
:1029B0002846B0BD40F60040C4F201004FF48071DB
:1029C0000022FEF7C3BA000040F60040C4F2010046
:1029D0004FF400710122FEF7B9BA000010B584B0BF
:1029E00041F21800C4F20200016840F6004441F0D0
:1029F000080101600068C4F2010400F008000090C2
:102A000000984FF440700090012001900020029047
:102A10000320039069462046FEF790F920464FF4C4
:102A200080710122FEF792FA20464FF400710122D4
:102A3000FEF78CFA04B010BDFEF7A2FA4FF4E010D6
:102A400001F012F8FFF7CAFFFFF7B4FFFFF7BCFF72
:102A50004FF4E13001F036F8FFF75AFF4FF4E13060
:102A6000FFF796FBFFF7EEFD10B913A001F0F4FDA0
:102A70000020002500F0BAF900F09CF8002000F0DA
:102A8000CBFF13A001F0E8FD15A409E00135E8B281
:102A9000032888BF002500F08DF8E8B200F0BCFFE5
:102AA000FFF756FF022802D00128F9D1EEE72046B1
:102AB00001F0D2FD0025EEE7536F6D657468696E15
:102AC000672077656E742077726F6E670D00000067
:102AD00048656C6C6F20576F726C64210D000000AC
:102AE0007570646174652077656174686572200D26
:102AF000000000002DE9F04F85B01C46DE08670796
:102B00004FF0010318BF03EBD406002E04964DD0FE
:102B10005039039100F00F01000910300190600856
:102B2000203A009045F63010D6B244F26078C0F6F4
:102B3000000045F2BC4A0027C0F6000800EB061969
:102B4000C0F6000A029102E0049887422ED0039852
:102B50003844C0B200F032FA029800F02FFA01981F
:102B600000F02CFA009807FB00FB013707FB00F58B
:102B700006E000BF4844007800F0C6FA0BF1010BF4
:102B80005FFA8BF08542DFD9182C09D0102CF1D0D8
:102B90000C2CF3D106EB46010AEB810104E000BFE7
:102BA00006EBC60108EB81010844E4E705B0BDE887
:102BB000F08F00002DE9F04F81B000F03FF94FF0A9
:102BC000000A4FF00A0B4B200FF2D4195FFA8BF179
:102BD0000909203801F1100545F63011C0B2C0F6E0
:102BE00000010BF00E0801EB00170026A6F14E00C5
:102BF000C0B200F0E3F9404600F0E0F9284600F0EA
:102C0000DDF901364FF0FF343819407800F07CFAD6
:102C10000134072CF8D1022E07F10807E6D10AF19A
:102C2000010A19F80A00BAF1030F0BF1080BCDD114
:102C30004FF0000A4FF00A0B4D200FF2681900BF49
:102C40005FFA8BF10909203801F1100545F63011C2
:102C5000C0B2C0F600010BF00E0801EB0017002611
:102C6000A6F14C00C0B200F0A9F9404600F0A6F968
:102C7000284600F0A3F901364FF0FF3438194078A8
:102C800000F042FA0134072CF8D1022E07F10807B0
:102C9000E6D10AF1010A19F80A00BAF1060F0BF1A0
:102CA000080BCDD145F62070C0F60000A0F1010957
:102CB00000244D46A4F14C00C0B200F07FF904207E
:102CC00000F07CF9162000F079F910262F4600BF9D
:102CD00017F8010F00F018FA013EF9D1200604F1AF
:102CE000010405F11005E5D04FF0000B0A274D2037
:102CF000F9B20909203801F1100545F63011C0B2CA
:102D0000C0F6000107F00E0401EB00164FF00008BA
:102D1000A8F14A00C0B200F051F9204600F04EF987
:102D2000284600F04BF908F101084FF0FF3A00BFC8
:102D300006EB0A00407800F0E7F90AF1010ABAF15F
:102D4000070FF5D1B8F1020F06F10806E0D10BF13B
:102D5000010B16A010F80B00BBF1060F07F10807D6
:102D6000C6D10024A4F14A00C0B200F027F9042023
:102D700000F024F9162000F021F910254E4600BF7E
:102D800016F8010F00F0C0F9013DF9D1200604F159
:102D9000010409F11009E5D001B0BDE8F08F00BFD2
:102DA0004B2D57004D617854656D00004D696E5490
:102DB000656D00002DE9F04198461378002B08BF9F
:102DC000BDE8F0810D4606464FEA5807541E00BF85
:102DD000F0B2DAB229464346FFF78CFEA3783E44B0
:102DE000002B04F10104F3D1BDE8F0812DE9F0419D
:102DF00004464FF0000800BF68F04F000027C5B23E
:102E0000284600F0DBF807F00F00FEB200F0D6F81D
:102E10003009103000F0D2F8204600F075F9781C27
:102E200047B2B7F1FF3FEBDC5FFA88F008F1010829
:102E3000072828BFBDE8F081DEE700002DE9F04754
:102E400084B041F21806C4F20206306840F600442D
:102E500040F0080030603068C4F2010400F008005F
:102E60000090009830686D4640F00800306030688F
:102E70004FF4807800F008000090009801274FF090
:102E8000030920462946CDF80080CDE90177CDF829
:102E90000C90FDF753FF4FF4007A20462946CDF8F9
:102EA00000A0FDF74BFF30686D4640F00800306031
:102EB0003068294600F0080000900098306840F023
:102EC00008003060306800F008000090009820464C
:102ED000CDE90087CDE90279FDF730FF204629468C
:102EE000CDF800A0FDF72AFF6420FEF787FFAE2093
:102EF00000F064F8D52000F061F8802000F05EF862
:102F0000A82000F05BF83F2000F058F8D32000F034
:102F100055F80020002500F051F8402000F04EF850
:102F2000A12000F04BF8C82000F048F8DA2000F0AB
:102F300045F8122000F042F8812000F03FF8CF2041
:102F400000F03CF8D92000F039F8F12000F036F814
:102F5000DB2000F033F8302000F030F8A42000F03F
:102F60002DF8A62000F02AF88D2000F027F8142074
:102F700000F024F8AF2000F021F800BF65F04F000A
:102F80000026C4B2204600F019F806F00F00F7B290
:102F900000F014F83809103000F010F8002000F0AC
:102FA000B3F8701C46B2B6F1FF3FEBDCE8B2013576
:102FB0000728E3D304B0BDE8F0870000F0B581B086
:102FC00040F60044C4F20104054620464FF48071E7
:102FD0000122FDF7BBFF20464FF400710122FDF7EF
:102FE000B5FF20464FF4007100220026FDF7AEFF2A
:102FF00020464FF480710022FDF7A8FF782700BF1C
:10300000F8B2C20920464FF40071FDF79FFF204639
:103010004FF4807101227F00FDF798FF20464FF4A6
:1030200080710022FDF792FF072E06F10106E7D31B
:1030300020464FF480710122FDF788FF20464FF4AF
:10304000807100220026FDF781FF00BF20464FF46B
:1030500000710022FDF77AFF20464FF480710122B3
:10306000FDF774FF20464FF480710022FDF76EFFDC
:10307000072E06F10106E9D320464FF480710122A4
:10308000FDF764FF20464FF4807100220026FDF713
:103090005DFF00BFE8B2C20920464FF40071FDF7A2
:1030A00055FF20464FF4807101226D00FDF74EFF61
:1030B00020464FF480710022FDF748FF072E06F1ED
:1030C0000106E7D320464FF480710122FDF73EFF51
:1030D00020464FF480710022FDF738FF20464FF460
:1030E00080710122FDF732FF20464FF4007100226B
:1030F000FDF72CFF20464FF40071012201B0BDE81E
:10310000F040FDF723BF0000F0B581B040F6004469
:10311000C4F20104054620464FF480710122FDF7F8
:1031200015FF20464FF400710122FDF70FFF2046E6
:103130004FF4007100220026FDF708FF20464FF4EF
:1031400080710022FDF702FF782700BFF8B2C209A4
:1031500020464FF40071FDF7F9FE20464FF48071D0
:1031600001227F00FDF7F2FE20464FF4807100221D
:10317000FDF7ECFE072E06F10106E7D320464FF4DB
:1031800080710122FDF7E2FE20464FF4807100229B
:103190000026FDF7DBFE4027F8B2C20920464FF4B7
:1031A0000071FDF7D3FE20464FF4807101227F00AD
:1031B000FDF7CCFE20464FF480710022FDF7C6FEDD
:1031C000072E06F10106E7D320464FF48071012255
:1031D000FDF7BCFE20464FF4807100220026FDF76B
:1031E000B5FE00BFE8B2C20920464FF40071FDF7FA
:1031F000ADFE20464FF4807101226D00FDF7A6FE62
:1032000020464FF480710022FDF7A0FE072E06F144
:103210000106E7D320464FF480710122FDF796FEA8
:1032200020464FF480710022FDF790FE20464FF4B7
:1032300080710122FDF78AFE20464FF400710022C2
:10324000FDF784FE20464FF40071012201B0BDE875
:10325000F040FDF77BBE00008446002200200BE01A
:103260006FF02F0119440844032A02F1010218BF2C
:103270000001042A08BF70471CF80230A3F1300196
:103280000A29EDD3A3F14101062903D26FF03601DB
:10329000E8E700BFA3F16101052984BF0020704762
:1032A0006FF05601DEE70000CB68DA087C2A84BFA5
:1032B000002070472DE9F04381B0D1E9017201335C
:1032C000BA42CB6080F0BE800B689E5C7B2E40F0E3
:1032D000B9800132BA428A600CD25BB19E5C202E6A
:1032E00004D8013297428A60F8D13A46BA4204BF04
:1032F000013A8A608A68BA4280F0A2809B5C7D2B8A
:1033000012D100260027CA68002EA2F10102CA606D
:1033100018BF77608B684022C0E90262581C886041
:10332000012001B0BDE8F083BA4280F08980013A03
:10333000002600278A6000BF0C46096981462820C4
:10334000884700285ED028210546FCF708FFA846DC
:10335000002E1EBF3D606F60B046D4E90130421CB4
:103360009A4251D220682146A26058B1875C202F32
:1033700004D8013293428A60F8D11A469A4204BFB7
:10338000501E8860284600F067F8002841D0276862
:103390002146484687B1D1E901329A420CD200BF9A
:1033A000BE5C202E04D8013293428A60F8D11A46BE
:1033B0009A4204BF013A8A602A69D1E901372A6238
:1033C00000229F422A6121D20A68D65D3A2E1CD182
:1033D000781C984288600CD25AB1175C202F04D810
:1033E000013083428860F8D11846984204BF013802
:1033F0008860284600F0B6F958B12046FEF7D2FBA7
:10340000012207E0002207E04846002246462F46F8
:1034100003E0002246462F464846A2B1D4E90132D5
:103420009A4210D225682146AD5C2C2D3FF484AF22
:103430009A4208D20B689A5C7D2A3FF464AF02E09E
:10344000501E8860002616B13046FEF7C5FB0020EE
:1034500001B0BDE8F08300002DE9F04F83B08A464B
:103460000968DAF808204FF000098E18B04618F8FD
:10347000012B222A40F05981DAF80420A8EB01033D
:1034800093424FF0000538BF0125012793421BD21C
:103490000023C3460DE000BF222C17D0013706EBF6
:1034A000070BABEB010595424FF0000538BF012536
:1034B00024D2F45D5C2CEFD17C1C35196D1A954239
:1034C0001AD201332746E9E7C34617E0E90713D0CC
:1034D000F15D222910D19919ABEB0101DAF8102026
:1034E0000131044608469047814649462046B9F1D5
:1034F000000F18BF012102E04FF000090021002950
:1035000000F01381022F4D46C0F21C8106EB070C20
:1035100040F2FF3E4D4606E008F1010805F8011BA8
:10352000E04580F00F8198F800105C29F4D1ABEBF6
:103530000803012BC0F2F58098F801200021A2F1C8
:103540002204532C00F23B800826DFE804F02A38DE
:1035500038383838383838383838382A38383838F9
:1035600038383838383838383838383838383838DB
:1035700038383838383838383838383838383838CB
:1035800038383838383838382A38383838383338CE
:10359000383832383838383838382C3838382E38C7
:1035A000303C164606E00A2604E00D2602E0092615
:1035B00000E00C2605F8016B022188440121002956
:1035C0007FF4AEAFB1E0062BC0F2A880CDF808A022
:1035D00008F1020100224FF0000A0BE06FF02F0605
:1035E00033449A44032A02F1010218BF4FEA0A1A2F
:1035F000042A14D08B5CA3F130070A2FEED3A3F179
:103600004107062F02D26FF03606E9E7A3F1610702
:10361000052F02D86FF05606E2E74FF0000A2AEABB
:103620000E01B1F55C4F76D0B1F5584F1BD108F1C2
:103630000601ABEB0102062A17DB09785C2914D1DD
:1036400098F80710752910D1064608F1080064465D
:10365000FFF702FEA0F5604111F5806F4ED24FF0EA
:10366000000A002151E0062105E04FF0000A002188
:10367000002950D00C21BAF1800FCDF804C007D337
:10368000BAF5006F29D24FF0C00C4FF0020E03E0E4
:103690004FF0000C4FF0010EBEF1010253464FF007
:1036A00002070CD0D3B2EE18544600BFA30967F34B
:1036B0009F14013A06F8014914061C46F6D103F09E
:1036C0007F02BAF17F0F88BF43EA0C02DDE901CA2D
:1036D0002A70754440F2FF3E20E0BAF5803F04D2E4
:1036E0004FF0E00C4FF0030ED6E74FEA1A42102AD3
:1036F00011D84FF0F00C4FF0040ECDE76FF39F2080
:103700006AF3932000F5803A01213046A44640F246
:10371000FF3E0029AED1DDF808A0002100297FF48A
:103720004CAF002100297FF4FBAEB9F1000F03D0AC
:10373000DAF8141048468847DAF80000A8EB0001D0
:1037400000200AE000212970DAF800201021C0E9E9
:103750000319ABEB0200411C0120CAF8081003B0AA
:10376000BDE8F08F2DE9F04792B0002900F05081BC
:103770000F688A46002F00F04B81DAE90156814636
:1037800006F10408A84509D845F65E71B819C0F6D7
:10379000000104220424FCF727FD20B3741DAC4271
:1037A00008D845F65371B819C0F600010522FCF798
:1037B0001BFD00B3A84509D845F65971B819C0F6E4
:1037C00000010422FCF710FD00285ED0AE4280F01C
:1037D0001F81B85D222816D14846514612B0BDE877
:1037E000F047FFF739BEC9F80C40CAF8088001203D
:1037F00012B0BDE8F0870120C9F80C00CAF80840F3
:1038000012B0BDE8F087AE4280F00281B85D2D288D
:1038100046D03038092843D9AE4280F0F980B85DEF
:103820005B2840F09380DAF80C00C1087C2900F294
:10383000EF800130CAF80C00B85D5B2840F0E380EF
:10384000701CCAF808005046FEF7ACF9DAE901101E
:10385000884280F0D580DAF80020125C5D2A40F0C2
:103860008F8000260025DAF80C00002EA0F1010060
:10387000CAF80C0018BF7560DAF808102020C9E9F2
:103880000260481CCAF80800B1E70220C9F80C0021
:103890000120C9F81400CAF8088012B0BDE8F0870A
:1038A000B9190020AA1B01AE119038BF024605E0ED
:1038B000652B22D1335401303F281DD082421CD0C9
:1038C0000B5CA3F130070A2FF4D3A3F12B071A2FB7
:1038D000EED8DFE807F00E120E0F121212121212BB
:1038E00012121212121212121212121212121212B8
:1038F0000E00DFE72E23DDE73F200021315411A920
:10390000304600F0F1FE119CA64200F081800022BA
:103910004FF6FF7380460F46CFF6C072C4F2DF1336
:10392000C9E90687FCF754FF68B90023CCF2E0131D
:10393000404639460022FCF730FF98B940463946E8
:10394000FCF761FF10E06FF000400DE0AE425FD287
:10395000B85D7B285CD14846514612B0BDE8F047BF
:10396000FFF7A2BC4FF00040C9F814000820C9F8C6
:103970000C00DAF80800A11B0844CAF8080036E772
:1039800088423DD2013800260025CAF80800DAF83E
:10399000101028208847D8B128210746FCF7DFFB04
:1039A0003C46002E1EBF2F607D603446DAF80800CA
:1039B0000130CAF808005046FEF7F4F83846514680
:1039C000FFF7D0FE30B15046FEF7ECF8012002E0E0
:1039D000002002E0002026463D46A8B1DAE90110A9
:1039E000884211D2DAF80020125C2C2ACFD088420B
:1039F0000AD2DAF80010085C5D283FF434AF03E027
:103A00000138CAF80800002616B13046FEF7E4F87F
:103A1000002012B0BDE8F08710B540F24C51C2F260
:103A200000012C2200FB02140A2000212246102350
:103A3000FFF7C0F9A06A00F05BF8024640200221BF
:103A40001023FFF7B7F904F11402402004211023DA
:103A5000FFF7B0F904F11E02402006211023BDE853
:103A60001040FFF7A7B90000F0B58FB005AD0446D0
:103A700028462821FCF773FB0120002605904FF40F
:103A800080300227CDE90606CDE90C702846049661
:103A9000CDE90266CDE900660E94FDF7FFFB00B1AB
:103AA000FEE70F20CDE900074FF48060CDE9030663
:103AB000684602210296FDF7EFFA00B1FEE70FB06B
:103AC000F0BD000040F27C4143F60002C2F200016A
:103AD000C4F2010200234FF00C0CC1E9002008469B
:103AE000C1E90233C1E9043C8B61FDF789BD0000E7
:103AF000632800F25280014646F22310C0F600000F
:103B0000DFE801F04C4C46464B4B4B4B4B4B4B4B81
:103B10004B4B4B4B4B4B4B4B4B4B4B4B4B4B4B4BF5
:103B20004B4B4B4B4B4B4B4B4B4B4B4B4B4B4B4BE5
:103B30004B4F4B4B514B4B3C4B3C4B3C3C3C4B4B16
:103B40004B324B324B3232324B4B4B374B374B377E
:103B50004B374B4B3232324B4B37374B4B4B4B4B3C
:103B60004B4B4B4D414B4B4146F21D10C0F60000F4
:103B7000704746F22910C0F60000704746F2151053
:103B8000C0F60000704746F20F10C0F60000704704
:103B900046F20810C0F6000070470BA0704703A063
:103BA000704706A0704703A0704700BF53746F7240
:103BB0006D790000466F6767790000004F76657287
:103BC0006361737400000000556E6B6E6F776E005A
:103BD0000FB4054B10B503A9044A029800F066F92A
:103BE00010BC5DF814FB00005D25000800000020FB
:103BF0000FB47CB50C0009AD01D0611E00E00021BE
:103C0000CDE90001064B6A462946089800F04EF9B6
:103C1000002C02D0009A002111707CBC5DF814FBCE
:103C2000DB4500080FB4084B10B504A902AA03989D
:103C300000F03CF9044602A9002000F0D9FC20461F
:103C400010BC5DF814FB0000F145000830B528B148
:103C5000144C031F002021680A4605E0084630BDC9
:103C60009A4203D810465268002AF9D1002800D0A1
:103C700041680BD00468A3EB0005A54204D11B6882
:103C80001C440346046002E0436000E023603AB154
:103C90001C68D51AA54203D115682C441C605268D3
:103CA0005A6030BD040000202DE9F04782460F4CD9
:103CB00010480D4E0E4F001B4FF0000820F0070576
:103CC0004FF0010900221146504600F097FC0028F1
:103CD00002D1306810B10020BDE8F0873C60C4E933
:103CE0000058C6F80090EDE708000020040A002004
:103CF000040000200016002002E008C8121F08C1BE
:103D0000002AFAD170477047002001E001C1121F5C
:103D1000002AFBD1704700002DE9FF5F82B000212F
:103D2000DDE90430020DDDF840B0034318D044F65D
:103D30001050A2F2FF3242431514119801281FD0EF
:103D4000A5EB0B00401C5FEA000A4FF000064E4F47
:103D5000DFF83891B046504615D5CAF1000413E09B
:103D6000119801244AA3012801D16FEA0B0102989E
:103D7000119AC0E90031C0E9024206B0BDE8F09FE7
:103D8000CBF10000DFE704460021404A491842EB2E
:103D90000450CDE9001012E0E00707D032463B4660
:103DA00040464946FCF787FC8046894632463B46FA
:103DB00010461946FCF77FFC06460F466410002C9F
:103DC000EAD1DDE90401DDE90023BAF1000F06DAEA
:103DD000FCF771FC42464B46FCF76DFC05E0FCF736
:103DE0007AFE42464B46FCF776FE04460E4600221B
:103DF000284BFCF703FF03D84FF0FF30014607E0E4
:103E00000022254B20463146FCF7AEFBFCF7DEFED8
:103E1000102409E0002C0ADB0A220023FCF728FD0D
:103E2000039B30321A55641E50EA0102F2D1641C21
:103E3000039AC4F111031444119A012A03D00122F8
:103E400008430DD10AE0084304D000204FF0110BC5
:103E5000119072E7A3EB0B056D1E0DE05B4504DDD1
:103E60004FF0000205F1010504E003DA4FF0000213
:103E7000A5F10105002AECD002981199C0E90231A0
:103E8000C0E9004579E70000000014400000F03F61
:103E9000300000000000F0430000E03F30380A2806
:103EA00001D2012070470020704700002DE9FF4F2C
:103EB00095B09B468946064600250FE2252877D116
:103EC00000242746F84A0121059400E0044316F82F
:103ED000013F203B01FA03F01042F7D130782A2845
:103EE00011D06FF02F033078A0F13002092A16D8D4
:103EF000059A44F0020402EB820203EB42021044F2
:103F0000761C0590EFE759F8042B0592002A03DA96
:103F1000504244F40054059044F00204761C30787A
:103F20002E2816D116F8010F44F004042A280DD0CB
:103F30006FF02F023078A0F13003092B09D807EB7E
:103F4000870302EB4303C718761CF3E759F8047B99
:103F5000761C30786C280FD006DC4C2817D06828E7
:103F60000DD06A2814D104E0742810D07A280FD11B
:103F70000DE044F400140AE044F4801401E044F439
:103F800040147278824202D104F58014761C761CAB
:103F9000307866280BD013DC582877D009DC00284D
:103FA00075D04528F6D04628F4D047281AD19DE18F
:103FB00018E0632835D0642879D0652812D195E1BE
:103FC000702873D008DC6728F1D069286FD06E287C
:103FD0000DD06F2806D1B5E073282CD0752875D088
:103FE000782874D05A46179990476D1C75E1C4F330
:103FF0000250022809D003280DD0D9F80010042857
:104000000DD00D6009F1040967E1D9F80010EA1735
:10401000C1E90052F6E7D9F800100D80F2E70D7003
:10402000F0E719F8041B8DF8001000208DF801004E
:10403000EA46012003E059F804AB4FF0FF30610776
:104040004FF0000102D40DE008F101018846B942A9
:104050000FDA8045F8DB1AF808100029F4D108E0DF
:1040600008F1010188468142FADB1AF8081000299C
:10407000F6D105985B46A0EB080721463846179A0B
:1040800000F094FA284400EB080507E04DE029E130
:104090000DE01AF8010B5A4617999047B8F101083C
:1040A000F7D25B4621463846179A13E142E00A22CE
:1040B0000092C4F302524FF0000A022A08D059F8C5
:1040C00004CB032A4FEAEC710AD00DE029E02AE084
:1040D00009F1070121F00702F2E802C1914609E067
:1040E0000FFA8CFC4FEAEC71042A03D14FFA8CFCD6
:1040F0004FEAEC71002907DA0A460021DCF1000CD6
:1041000061EB02012D2202E0220504D52B228DF85D
:104110000420012203E0E20701D02022F7E79046C5
:1041200059E00A2102E010220DE010214FF0000AB0
:1041300000910BE010224FF0000A44F0040408271D
:10414000009203E008224FF0000A0092C4F30252EA
:10415000022A05D059F804CB0021032A08D009E02F
:1041600009F1070121F00702F2E802C1914605E0DA
:104170001FFA8CFC042A01D10CF0FF0C4FF0000850
:10418000220728D5702806D0009B83F0100353EA3D
:104190000A0305D00EE040228DF80420012208E039
:1041A0005CEA010206D030228DF804208DF805006B
:1041B00002229046009B83F0080353EA0A030AD1C7
:1041C0005CEA010201D1620705D530228DF8042096
:1041D0004FF001087F1E582804D034A003900EA889
:1041E00002900DE036A0F9E753466046009AFCF7CE
:1041F0003FFB84460398825C0298401E0290027046
:104200005CEA0100F0D1029806A9081A00F1200A20
:10421000600702D524F4803400E00127574502DD11
:10422000A7EB0A0000E0002000EB0A0100900598CF
:104230004144401A0590E00306D45B462146179A94
:10424000059800F0B3F90544002706E001A85A4696
:10425000C05D179990476D1C7F1C4745F6DBE00356
:104260000CD55B462146179A059800F09FF9054446
:1042700004E030205A46179990476D1C0099481E5B
:1042800000900029F5DC08E0029802995A4600786F
:10429000491C0291179990476D1CBAF10001AAF1CF
:1042A000010AF1DC65E100000928010030313233F8
:1042B0003435363738396162636465660000000062
:1042C000303132333435363738394142434445464C
:1042D0000000000000F058F90544761C30780028F2
:1042E0007FF4ECAD19B02846BDE8F08F620700D42A
:1042F000062709F1070222F0070CFCE80223E14639
:1043000003F000485FEA080C02D00FF2702C0DE0B9
:104310005FEA045C02D50FF2682C07E05FEAC47C18
:1043200002D00FF2602C01E0AFF2700C4FF0FF38BA
:1043300023F00043CDF850C065280CD006DC45289A
:1043400009D046281DD047283DD13DE0662818D029
:1043500067287ED138E00021112F01DB112000E019
:10436000781CCDE9000106A90EA8FFF7D5FCDDE910
:104370000F010E9A03910021009207F1010A0491A6
:104380004DE04FF000400097CDE9011006A90EA8BE
:10439000FFF7C2FCDDE90F0203920E9B1199002288
:1043A000DDF80CA00093049211B9791C00EB010A0E
:1043B000B7EB0A0004D4C0F1FF3007F1010A049002
:1043C000AAEB0700019044E0012F00DA0127002149
:1043D000112F01DD112000E03846CDE9000106A9CA
:1043E0000EA8FFF799FCDDE90F010E9A0391002159
:1043F00004910092BA4621070CD40399514500DA82
:104400008A46BAF1010F05DD009AAAF10101515C5B
:10441000302908D0B84202DA10F1040F06DA01217F
:10442000CDE9011015E0AAF10101E9E7002805DC5A
:10443000049901440491AAEB000102E0411C51459A
:1044400000DD8A460499401A401C01904FF000405C
:104450000290200704D40198504501DBCDF8048078
:1044600000208DF84F0002980DF14F07B0F1004F7A
:1044700025D02B200E9002984FF0020800280CDA6D
:10448000404202902D200E9007E00A210298FCF78E
:10449000D9F93031029007F8011DB8F10001A8F1F7
:1044A0000108F2DC02980028EFD1791E0E980870FE
:1044B000307800F0200040F0450007F8020D12A807
:1044C000C01B00F107081498007800B1012000EB30
:1044D0000A01019801EBE07105984144401A401E21
:1044E0000590E00306D45B462146179A059800F034
:1044F0005DF805441498007818B15A46179990470A
:104500006D1CE00324D55B462146179A059800F000
:104510004DF805441CE00498002807DBDDE90301A1
:10452000884203DD0098405C179901E0179930201C
:104530005A469047049805F10105401C04900198E3
:10454000401E019004D12E205A46179990476D1CA9
:10455000BAF10001AAF1010ADDDC05E017F8010B50
:104560005A46179990476D1CB8F10001A8F101084F
:10457000F4DC5B462146179A0598ABE62D00000057
:104580002B000000200000002DE9F041044600252A
:104590001E461746880404D405E039462020B0475B
:1045A0006D1C641EF9D52846BDE8F0812DE9F04167
:1045B000044600251E469046C80301D5302700E07A
:1045C0002027880404D505E041463846B0476D1CD5
:1045D000641EF9D52846BDE8F0814A68002A06D055
:1045E0000A68531C0B6010704868401E4860704792
:1045F0000A68531C0B601070704700002DE9F041F1
:104600000B3020F00706104D19E02068B04215D39A
:10461000B0420AD9871B201DD4F80480FBF786FD21
:10462000A019C0E90078286004E060682860201DB7
:10463000FBF77CFD201D2660BDE8F081251D2C6860
:10464000002CE2D10020F7E7040000200149FDF72B
:1046500085BF00000000002010B5044601E0FDF712
:104660007DFF14F8010B04490028F8D1BDE8104083
:104670000A20FDF773BF0000000000202DE9F0477D
:1046800004008A4616D054F8047CD4F800903E1FEB
:10469000564500D956462046FFF7D8FA05468846C3
:1046A000324621465046FFF7A9FF40B1C0F80090BE
:1046B000BDE8F087BDE8F0470846FFF7F5BA44E9E2
:1046C000017955B129686A18211F8A4202D9611BF4
:1046D000091F2960C5F80480EAE7024AC2F8008091
:1046E000E6E700000400002000B583B00A46002180
:1046F000CDE90011014601236846FCF75AF9DDE9CE
:10470000000103B000BDDDDDDDDDDCBBBBDDDDDDDB
:10471000DDDDDDDDDDDD988888888888888877772D
:1047200077777788888885555556666666666666A3
:1047300066666668888883333332222222222222E8
:1047400022222228888D00000000000000000102C3
:104750000304060708090000000001020304010227
:104760000000000000000000000000000000000049
:104770000000000000000000000000000000000039
:10478000000000000000000000F0F0F00000000059
:104790000000000000017F01000000000000000098
:1047A000001C1C1C0000000000008060301C8C609D
:1047B000301C0C00000000000000000000000000A1
:1047C000000000000000000000000000000000E009
:1047D0000000000000E000000086E69F86868686D6
:1047E000E69F860000011F01010101011F01010078
:1047F000000080C06020F820E0C000000000030737
:104800000C18FF70E18100000000070F10107F10EE
:104810000F0700008060206080000000E0200000A2
:104820000F3020309F70DC371030C0000000100EB9
:1048300003000718101807000000C02020E0C00087
:104840000000000080E01F38E88703C43C0400003B
:10485000070F1810100B070D1010080000808C4C6B
:104860003800000000000000000000000000000010
:104870000000000000000000000000000000000038
:1048800000000000000080E030080400000000008C
:1048900000FEFF0100000000000000000000030F08
:1048A0001820400000040830E080000000000000F4
:1048B0000000000001FFFE00000000000040201882
:1048C0000F03000000000000000000000000C00016
:1048D00000000000004266663C18FF183C66664215
:1048E00000000000000003000000000000000000C5
:1048F0000000800000000000001010101010FF10D9
:104900001010101000000000000003000000000064
:104910000000000000000000000000000000000097
:10492000000000000000000000808C4C38000000F7
:104930000000000000000000000000000000000077
:1049400000101010101010101010100000000000C7
:104950000000000000000000000000000000000057
:104960000000000000000000000000000000000047
:1049700000001C1C1C0000000000000000000000E3
:1049800000000000E0380C000000000080701C03F4
:10499000000000000060380E010000000000000070
:1049A000000080C060202060C080000000FEFF0189
:1049B0000000000001FFFE000001070E1810101893
:1049C0000E0701000000808080C0E00000000000B1
:1049D0000000000000FFFF000000000000001010B9
:1049E000101F1F10101000000080402020202060A9
:1049F000C080000000030300804020381F07000033
:104A0000001C1A1918181818181F00000080C02060
:104A1000202060C080000000000303001010182F49
:104A2000E780000000070F10101010180F0700009B
:104A3000000000000000C0E0F000000000C0B088EE
:104A4000868180FFFF808000000000000010101FA2
:104A50001F1010000000E060606060606060000097
:104A600000003F1008080818F0E0000000070B10D5
:104A70001010101C0F030000000080C040202020F8
:104A8000E0C0000000FCFF211008080818F0E0005A
:104A90000001070C18101010080F03000000C0E000
:104AA0006060606060E06000000003000000E018EB
:104AB0000700000000000000001F1F0000000000B1
:104AC0000080C0602020202060C080000087EF2C84
:104AD0001818303068CF830000070F08101010102E
:104AE000180F07000000C0C020202020C080000058
:104AF000001F3F604040402010FFFE0000000C1CE3
:104B0000101010080F03000000000000000000005B
:104B10000000000000000000000E0E0E000000006B
:104B200000000000001C1C1C000000000000000031
:104B3000000000000000000000000000000C0C005D
:104B400000000000000000000058380000000000D5
:104B5000000000000000008040201000000010282D
:104B6000448201000000000000000000000001027B
:104B70000408100000000000000000000000000019
:104B800000848484848484848484840000000000FD
:104B90000000000000000000000010204080000025
:104BA0000000000000000000000001824428100006
:104BB00000001008040201000000000000C02020D6
:104BC0001010101030E0C0000003030000F01008C7
:104BD0000C070300000000001C1C1C00000000006B
:104BE000000000C0406020202040C00000FCFF0109
:104BF000F00E03C1FE03807F0001070E08111110A3
:104C0000110904020000000080E0E0000000000044
:104C10000000807C4340477FF880000010181F1080
:104C200000000000131F1C1020E0E0202020206066
:104C3000C080000000FFFF10101010182FE7800048
:104C4000101F1F1010101010180F0700000080C058
:104C5000402020202060E00000FCFF010000000058
:104C6000000001000001070E1810101008040300D6
:104C700020E0E02020202040C080000000FFFF0056
:104C80000000000001FFFE00101F1F101010180888
:104C90000E07010020E0E02020202020206080007E
:104CA00000FFFF101010107C00000000101F1F10EC
:104CB000101010101018060020E0E0202020202006
:104CC0006060800000FFFF101010107C00000100E9
:104CD000101F1F100000000000000000000080C036
:104CE0006020202040E0000000FCFF010000404068
:104CF000C0C140400001070E181010100F0F000037
:104D000020E0E0200000000020E0E02000FFFF1095
:104D10001010101010FFFF00101F1F1000000000E7
:104D2000101F1F100000202020E0E02020200000A5
:104D30000000000000FFFF00000000000000101055
:104D4000101F1F101010000000000000202020E0A5
:104D5000E020202000000000000000FFFF00000015
:104D60000060E0808080C07F3F00000020E0E02005
:104D7000000020A06020200000FFFF30187CE3C06E
:104D800000000000101F1F10000001131F1C18104E
:104D900020E0E020000000000000000000FFFF0015
:104DA0000000000000000000101F1F101010101065
:104DB0001018060020E0E0E000000000E0E0E02045
:104DC00000FF013FFEC0E01E01FFFF00101F1000AA
:104DD000031F0300101F1F1020E0E0C000000000B0
:104DE0000020E02000FF0003071C78E08000FF00A7
:104DF000101F100000000000030F1F00000080C003
:104E000060202060C080000000FEFF010000000064
:104E100000FFFE000001070E181010180C0701001B
:104E200020E0E0202020202060C0800000FFFF2044
:104E300020202020301F0F00101F1F100000000036
:104E400000000000000080C060202060C0800000E2
:104E500000FEFF010000000000FFFE000001070E41
:104E60001111133C7C67210020E0E020202020204D
:104E700060C0800000FFFF101030F0D0080F070066
:104E8000101F1F10000000030F1C10100080C060D6
:104E9000202020204040E00000070F0C1818303080
:104EA00060E08100001F0C0810101010180F0700A0
:104EB0008060202020E0E0202020608001000000B1
:104EC00000FFFF000000000100000000101F1F1085
:104ED0000000000020E0E020000000000020E020B2
:104EE00000FFFF00000000000000FF0000070F1897
:104EF00010101010100807002060E0E020000000F3
:104F000020E060200000077FF88000807C03000024
:104F100000000000071F1C070000000020E0E02048
:104F200000E0E0200020E0200007FFF8E01FFFFC89
:104F3000E01F00000000031F0300011F030000002A
:104F4000002060E0A0000020E060200000000003DE
:104F50008F7CF8C6010000000010181E1300011716
:104F60001F1810002060E0E02000000020E060201A
:104F7000000001073EF8E0180700000000000010E4
:104F8000101F1F101000000000806020202020A0B3
:104F9000E0E0200000000000C0F03E0F0300000031
:104FA00000101C1F17101010101806000000000041
:104FB00000FC0404040404000000000000FF0000E2
:104FC0000000000000000000007F40404040400022
:104FD000000010E0000000000000000000000000E1
:104FE000031C6080000000000000000000000003BF
:104FF0000C70800000000404040404FC00000000A5
:1050000000000000000000FF000000000000404021
:105010004040407F0000000000000010080C040C1D
:105020000810000000000000000000000000000068
:105030000000000000000000000000000000000070
:105040000000000000000000000000000000000060
:105050000000000080808080808080808080808050
:105060000000000404080800000000000000000028
:105070000000000000000000000000000000000030
:105080000000000000000000000000000000000020
:10509000000098D844642424FCF80000000F1F1876
:1050A000101010081F1F10180020E0F00000000072
:1050B000000000000000FFFF180804040CF8F000D6
:1050C00000001F0F18101010180F03000000000040
:1050D000000000000000000000E0F8180404043C98
:1050E0003800000000030F0C10101010080600001C
:1050F0000000000000000020E0F0000000E0F81CCC
:1051000004040408FFFF000000030F18101010082B
:105110001F0F080000000000000000000000000059
:105120000000E0F8484444444C7870000000030F4D
:105130000C181010100804000000000080C060204F
:1051400020E0C00000040404FFFF04040404000085
:10515000000010101F1F10101000000000000000C1
:105160000000000000000000000070F88C04048CB7
:10517000F874040C007076CF8D8D8D89C87870001E
:105180000020E0F000000000000000000000FFFF31
:1051900008040404FCF8000000101F1F1000001099
:1051A0001F1F1000000000000060600000000000F1
:1051B0000000040404FCFC000000000000001010CB
:1051C000101F1F1010100000000000000000006001
:1051D0006000000000000000040404FCFC0000006B
:1051E0000000C0C08080C07F3F0000000020E0F0D1
:1051F00000000000000000000000FFFF80C0F41C61
:105200000404000000101F1F1100031F1C101000D9
:105210000000202020E0F00000000000000000005E
:1052200000FFFF000000000000001010101F1F1002
:10523000101000000000000000000000000000004E
:1052400004FCFC0804FCFC0804FCFC00101F1F10FC
:10525000001F1F10001F1F100000000000000000B2
:10526000000000000004FCFC08080404FCF8000036
:1052700000101F1F100000101F1F10000000000072
:10528000000000000000000000E0F0180C04040C16
:1052900018F0E00000030F0C101010100C0F0300AA
:1052A0000000000000000000000000000004FCFC02
:1052B000080404040CF8F0000080FFFF8890101030
:1052C0001C0F0300000000000000000000000000B0
:1052D00000E0F81C04040408F8FC000000030F18A8
:1052E00010109088FFFF8000000000000000000008
:1052F00000000000040404FCFC100804040C0C0072
:105300001010101F1F1010100000000000000000FF
:10531000000000000000000000003078CCC484844D
:10532000840C1C0000001E1810101011190F06002C
:105330000000000000C000000000000000040404A1
:10534000FFFF040404000000000000000F1F101005
:10535000100C000000000000000000000000000031
:105360000004FCFE00000004FCFE000000000F1F13
:10537000181010081F0F08000000000000000000B7
:105380000000000000040C3CFCC40000C43C0C0401
:1053900000000000010F1E0E0100000000000000D0
:1053A0000000000000000000043CFCC400E47CFCA1
:1053B00084807C040000071F070000071F0700000F
:1053C0000000000000000000000000000004041CB9
:1053D0007CE4C0341C0404000010101C1601131FD0
:1053E0001C18100000000000000000000000000079
:1053F00000040C3CFCC400C43C0404000000C08059
:10540000C1370E0100000000000000000000000095
:105410000000000000001C0404C4F47C1C04000014
:105420000000101C1F17111010180E0000000000C3
:10543000000000F80C04000000000000001028EF3D
:1054400000000000000000000000003F604000007D
:10545000000000000000FF0000000000000000004D
:105460000000FF0000000000000000000000FF003E
:10547000000000000000040CF80000000000000024
:1054800000000000EF281000000000000000406055
:105490003F0000000000000000180602020408108F
:1054A0002020300800000000000000000000000084
:1054B00000000000000000000000000000000000EC
:1054C00000000000000000000000FC0000000000E0
:1054D00002000000000C020C0200000000000000AE
:1054E00090D0BCD0BC900003000300001824FE4400
:1054F0008C000302070201001824D8B04C8000037E
:1055000000010201C038E438E00001020201020299
:10551000080600000000000000000000000000F885
:105520000402000000010204000204F8000000046C
:10553000020100009060F86090000000010000008F
:105540002020FC20200000000100000000000000DE
:10555000000008060000000020202020200000009D
:105560000000000000000000000000020000000039
:105570000080601C0200040300000000F804040422
:10558000F8000102020201000008FC000000000215
:1055900003020000188444241800030202020200DF
:1055A00008042424D80001020202010040B088FC53
:1055B00080000000000302003C242424C4000102F7
:1055C00002020100F824242CC000010202020100A2
:1055D0000C04E41C0400000003000000D824242470
:1055E000D80001020202010038444444F8000003DC
:1055F0000202010000001000000000000200000094
:10560000000020000000000006000000002050887C
:1056100004020000000001029090909090000000B1
:105620000000000000020488502000020100000079
:105630001804C4241800000002000000F804E494D8
:10564000F80001020202020000E09CF08000020368
:105650000000030204FC2424D8000203020201001B
:10566000F80404040C0001020202010004FC04041A
:10567000F80002030202010004FC24740C0002037F
:105680000202030004FC24740C0002030200000068
:10569000F0080444CC4000010202010004FC202078
:1056A000FC040203000003020404FC0404000202E0
:1056B00003020200000404FC0404060404030000C6
:1056C00004FC24D00C0402030200030204FC0400C6
:1056D0000000020302020203FC3CC03CFC00030089
:1056E0000300030004FC30C4FC04020302000300B6
:1056F000F8040404F80001020202010004FC24245E
:105700001800020302000000F8848404F80001027B
:105710000207050004FC246498000203020003024F
:10572000182424448C000302020201000C04FC042F
:105730000C0000020302000004FC0000FC04000155
:1057400002020100047C80E01C0400000300000051
:105750001CE03CE01C00000300030000049C609C73
:105760000400020300030200041CE01C0400000209
:10577000030200000C84641C040002030202030004
:105780000000FE020200000007040400000E30C00A
:105790000000000000010200000202FE0000000400
:1057A00004070000000402040000000000000000E4
:1057B00000000000000008080808080800000200B7
:1057C00000000000000000000040A0A0C000000198
:1057D0000202030204FC2020C000000302020100B8
:1057E00000C02020600000010202020000C020244E
:1057F000FC0000010202030200C0A0A0C0000001E2
:10580000020202000020F824240400020302020025
:105810000040A0A0602000070A0A0A0404FC20201F
:10582000C0000203020003020020E40000000002A6
:1058300003020000000020E4000008080807000040
:1058400004FC80E020200203020003020404FC00A8
:105850000000020203020200E020E020C00003007A
:105860000300030020E02020C00002030200030226
:1058700000C02020C00000010202010020E0202022
:10588000C000080F0A02010000C02020E000000153
:10589000020A0F0820E0402020000203020000005E
:1058A0000060A0A020000002020203000020F820F7
:1058B000000000000102020020E00020E0000001E2
:1058C0000202030220E020806020000003010000AB
:1058D0006080E080600000030003000020608060C2
:1058E000200002030003020020E02080602008085E
:1058F000070100000020A060200000020302020057
:10590000000020DE0200000000070400000000FF8D
:1059100000000000000F00000002DE200000000474
:105920000700000002010204040200000000000061
:105930000000000000000000000000000000000067
:10594000000000F8000000000000003330000000FC
:1059500000100C06100C0600000000000000000003
:1059600040C07840C0784000043F04043F04040075
:10597000007088FC08300000001820FF211E000085
:10598000F008F000E018000000211C031E211E009A
:1059900000F00888700000001E2123241927211020
:1059A00010160E00000000000000000000000000C3
:1059B000000000E01804020000000007182040006A
:1059C00000020418E000000000402018070000005A
:1059D000404080F0804040000202010F01020200BE
:1059E000000000F0000000000101011F01010100A2
:1059F000000000000000000080B070000000000007
:105A0000000000000000000000010101010101018F
:105A10000000000000000000003030000000000026
:105A200000000000806018040060180601000000FB
:105A300000E010080810E000000F102020100F00F8
:105A4000001010F8000000000020203F202000007F
:105A500000700808088870000030282422213000D7
:105A600000300888884830000018202020110E00DF
:105A70000000C02010F8000000070424243F240088
:105A800000F80888880808000019212020110E005D
:105A900000E0108888180000000F112020110E006F
:105AA00000380808C83808000000003F0000000067
:105AB0000070880808887000001C222121221C0028
:105AC00000E010080810E0000000312222110F0051
:105AD000000000C0C00000000000003030000000E6
